:10000000E1C00000FBC00000F9C00000F7C0000024
:10001000F5C00000F3C00000F1C00000EFC0000018
:10002000EDC00000EBC00000E9C00000E7C0000028
:10003000E5C00000E3C00000E1C00000DFC0000038
:10004000DDC00000DBC00000D9C00000D7C0000048
:10005000D5C000009B07A507B307B807BC07C107B9
:10006000C607CB07D007D407D807DD07E207E707A5
:10007000EB07EF07F407F907FE0702080608100868
:10008000120817081C086E616E00696E6600004059
:100090007A10F35A00A0724E18090010A5D4E80097
:1000A00000E87648170000E40B54020000CA9A3BAF
:1000B000000000E1F5050000809698000000404235
:1000C0000F000000A08601000000102700000000C3
:1000D000E803000000006400000000000A000000C7
:1000E00000000100000000002C76D888DC674F0873
:1000F00023DFC1DFAE59E1B1B796E5E3E453C63A79
:10010000E651997696E8E6C28426EB898C9B62EDEF
:10011000407C6FFCEFBC9C9F40F2BAA56FA5F490A9
:10012000055A2AF75C936B6CF9676DC11BFCE0E420
:100130000D47FEF520E6B500D0ED902E0300943576
:1001400077050080841E080000204E0A000000C8C9
:100150000C333333330F986E12831141EF8D21141A
:10016000893BE65516CFFEE6DB18D1844B381BF7EA
:100170007C1D901DA4BBE424203284725E22810089
:10018000C9F124ECA1E53D27494E46494E49545951
:100190004E414ECDCCCC3D0AD7233C17B7D1387752
:1001A000CC2B329595E6241FB14F0A000020410068
:1001B00000C84200401C4620BCBE4CCA1B0E5AAEB2
:1001C000C59D740011241FBECFE5D4E0DEBFCDBFB6
:1001D00010E0A0E6B0E0EEE6FCE102C005900D9272
:1001E000A237B107D9F710E0A2E7B0E001C01D9235
:1001F000A437B107E1F760D60C94350E01CFA1E129
:10020000B0E0E5E0F1E00C94E80A3C017F876E87FE
:100210006A01FC0117821682838181FD03C06FEFA2
:100220007FEF69C39E012F5F3F4F398B288BF3010E
:100230002381EE85FF8523FD859123FF8191FF8733
:10024000EE87882309F454C3853251F4EE85FF8587
:1002500023FD859123FF8191FF87EE87853229F465
:1002600090E0B3010E94100CE2CF982F10E0882498
:1002700099241032B0F49B3269F09C3228F4903209
:1002800051F0933271F40BC09D3239F0903349F440
:10029000116028C01260146025C0186023C010616E
:1002A00021C017FD2AC0892F80538A3078F416FFA9
:1002B00006C0FAE09F9E902C1124980E13C03AE0DD
:1002C000839E802C1124880E10620CC09E3221F473
:1002D00016FD0EC3106406C09C3611F4106802C0EF
:1002E000983659F4EE85FF8523FD959123FF919172
:1002F000FF87EE87992309F0BCCF892F855483307F
:1003000020F4812F8061905E07C0892F855683304D
:1003100008F09FC1812F8F7E86FD02C076E0972E68
:100320006FE3F62EF822953619F4F0E4FF2A07C0A1
:10033000963619F420E8F22A02C091109A94F7FE3A
:100340000AC03BE3391518F45CE3B52E02C0B92CA2
:10035000B39427E009C047E0491520F4BB2447E0E7
:10036000942EF7CF292DBB24C60104969D878C8738
:10037000F6016081718182819381AE014F5F5F4F91
:100380000B2D0E94220B6C010981202E332400FFCB
:1003900004C003FD02C01DE209C0F1FE02C01BE261
:1003A00005C0F2FC02C010E001C010E2C1018C7077
:1003B0009070892BB9F1112311F483E001C084E01E
:1003C000881510F088240AC0881AF3FC07C080E260
:1003D00090E0B3010E94100C8A94C9F7112329F010
:1003E000812F90E0B3010E94100C23FE03C006E8A9
:1003F00010E00EC00AE810E00BC0E114F10409F0AF
:10040000805290E0B3010E94100C0F5F1F4F05C097
:10041000EF2CFF24F0E1EF22FF24F80184918823E0
:1004200061F714C1F7FE12C0BC0C24FE04C08A811F
:10043000813309F4BA941B141CF0BB24B3942DC06F
:10044000F8E0FB1550F538E0B32E27C0F6FC25C0C8
:10045000892D90E08C159D054CF02CEFC2162FEFE6
:10046000D20624F030E8F32A01C09A94992049F08A
:10047000E2E0F0E0EC0FFD1FE90DF11D808180331B
:10048000A1F3F7FE0AC0B92CB394892D90E0C816E9
:10049000D90614F0992401C09C18F7FC03C025E08C
:1004A00030E009C01C141D041CF021E030E003C042
:1004B00096012F5F3F4F112311F02F5F3F4F99207F
:1004C00029F0892D90E00196280F391F882D90E0A2
:1004D0002817390714F0882401C0821A4F2C55249C
:1004E000C20189709070892B39F008C080E290E0D9
:1004F000B3010E94100C8A948820C1F7112329F0BF
:10050000812F90E0B3010E94100C43FE07C008C089
:1005100080E390E0B3010E94100C8A948820C1F718
:10052000F7FE46C08601D7FE02C000E010E076016B
:100530000894E11CF11CE01AF10A41E050E04C0F74
:100540005D1FE40EF51E26014B185108892D90E021
:10055000AA24BB24A81AB90A5FEF0F3F150729F494
:100560008EE290E0B3010E94100CC016D10634F068
:10057000401651061CF4F701808101C080E3015050
:1005800010400894E11CF11C0A151B052CF090E0AA
:10059000B3010E94100CE0CF0C151D0539F49A81AF
:1005A000963318F4953311F424FE81E390E04BC0A8
:1005B0008A81813309F00F7E90E0B3010E94100C14
:1005C0009920A1F08EE290E0B3010E94100C12E09D
:1005D000E1E0F0E0EC0FFD1FE10FF11D1F5F8081F6
:1005E00090E0B3010E94100C9A9491F744FC03C070
:1005F00085E690E002C085E490E0B3010E94100C13
:10060000D7FC05C0C114D10441F404FF06C0D09446
:10061000C194D108D3948DE201C08BE290E0B30184
:100620000E94100C80E305C08F5F26EF3FEFC20EE3
:10063000D31E3AE0C316D104BCF790E0B3010E9488
:10064000100CC601C096B3010E94100CCC84DD844E
:100650004CC1933631F0933799F0933509F059C076
:1006600023C0F601808189835E010894A11CB11C1E
:1006700022E030E0C20ED31E21E0E22EF12C12C0A7
:10068000F601A080B18016FD03C06FEF7FEF02C0BE
:10069000692D70E022E030E0C20ED31EC5010E9439
:1006A000050C7C011F7713C0F601A080B18016FDF8
:1006B00003C06FEF7FEF02C0692D70E022E030E0F1
:1006C000C20ED31EC5010E94FA0B7C01106813FFF5
:1006D00007C01BC080E290E0B3010E94100C8A9416
:1006E000882D90E0E816F906A8F30FC0F50117FD74
:1006F000859117FF81915F0190E0B3010E94100C7A
:1007000081108A940894E108F108E114F10471F76A
:10071000ECC0943611F0993689F517FF08C0F60140
:10072000208131814281538184E090E00AC0F6014A
:10073000808191819C01442737FD4095542F82E0B0
:1007400090E0C80ED91E9FE6F92EF12257FF09C08E
:1007500050954095309521953F4F4F4F5F4F90E812
:10076000F92ACA01B901AE014F5F5F4F2AE030E0BC
:100770000E945E0CE82EE889EE1A41C0953721F4FC
:100780001F7E2AE030E01CC0197F9F3661F0903751
:1007900020F4983509F0ACC00FC0903739F0983785
:1007A00009F0A6C004C028E030E00AC0106114FDC2
:1007B000146020E130E004C014FD166020E132E056
:1007C00017FF08C0F601608171818281938144E046
:1007D00050E008C0F60180819181BC0180E090E08A
:1007E00042E050E0C40ED51EAE014F5F5F4F0E9445
:1007F0005E0CE82E5889E51A8FE7F82EF122F6FEF6
:100800000BC08EEFF822E91438F4F4FE07C0F2FCB6
:1008100005C09FEEF92202C01E2D01C0192DF4FE65
:100820000DC0FE01EE0DF11D8081803319F4E9EE5B
:10083000FE2208C01F5FF2FE05C003C08F2D867820
:1008400009F01F5F0F2DF3FC13C0F0FE0EC018154A
:1008500010F09E2C0AC09E2C980C911A182D05C0E1
:1008600080E290E0B301DCD71F5F1815C8F304C025
:10087000181510F4811A01C0882404FF0EC080E30B
:1008800090E0B301CDD702FF1BC001FD03C088E794
:1008900090E00EC088E590E00BC0802F867881F054
:1008A00001FF02C08BE201C080E2F7FC8DE290E024
:1008B000B301B6D705C080E390E0B301B1D79A94F5
:1008C000E914C8F3EA94E1E0F0E0EC0FFD1FEE0D4F
:1008D000F11D808190E0B301A3D7EE2099F705C008
:1008E00080E290E0B3019CD78A948820C9F79FCC1E
:1008F000F30166817781CB016196E2E185C680FFD5
:1009000002C0C29A01C0C29881FF02C0C39A01C04E
:10091000C39882FF02C0C49A01C0C49883FF02C07A
:10092000C59A0895C59808951F93182FC19A829566
:100930008F70E5DFC198C19A812FE1DFC19880E116
:100940008A95F1F71F910895C098EECF1F93CF932A
:10095000DF93BA9ABB9ABC9ABD9AB99AB89A86EABA
:100960009EE00197F1F7C098C19810E0C2EED4E084
:10097000C19A83E0C4DFC198CE010197F1F71F5FF0
:100980001330B1F7C19A82E0BADFC1988AEF90E0E4
:100990000197F1F788E2D8DF88E0D6DF81E0D4DF85
:1009A00084EF91E00197F1F786E0CEDF8CE0CCDFB9
:1009B000DF91CF911F910895C09AB6CFCF93DF9367
:1009C000EC0102C02196F8DF88818823D9F7DF91F6
:1009D000CF91089581E0B8DF84EF91E00197F1F7BE
:1009E0000895CF92DF92EF92FF920F931F93DF93C0
:1009F000CF93CDB7DEB7A0970FB6F894DEBF0FBE8A
:100A0000CDBF7B018C01E6DF8DB79EB708970FB68F
:100A1000F8949EBF0FBE8DBFEDB7FEB731966E0145
:100A20000894C11CD11CADB7BEB71296DC92CE9211
:100A3000119780E690E093838283E482F5820683B7
:100A400017831AD78DB79EB708960FB6F8949EBF36
:100A50000FBE8DBFC601B2DFA0960FB6F894DEBF01
:100A60000FBECDBFCF91DF911F910F91FF90EF90FF
:100A7000DF90CF900895FC0180E090E0A0E0B0E02E
:100A800080839183A283B38384839583A683B78372
:100A900080879187A287B387148615861686178666
:100AA0000895FC0115861686178680E090E0A0E088
:100AB000B0E080839183A283B38380879187A287EC
:100AC000B38714860895FC018685882341F080E071
:100AD00090E0A0E0B0E080839183A283B383178687
:100AE0000895FC011786168684819581A681B781B9
:100AF00080839183A283B3830895CF92DF92EF9294
:100B0000FF920F931F93CF93DF93EC011F868C8589
:100B10008D32F1F08E3240F48A3241F18B3271F035
:100B2000853209F0A5C077C08E3509F43FC0833700
:100B300009F482C08F3209F09BC022C06885798594
:100B40008A859B85288139814A815B8182D209C04F
:100B5000688579858A859B85288139814A815B8171
:100B600077D2688779878A879B8782C068857985ED
:100B70008A859B85288139814A815B817DD4F1CF2B
:100B8000E880F9800A811B81C801B70120E030E0CC
:100B900040E050E0C2D2882309F46AC068857985B4
:100BA0008A859B85A8019701BCD2DBCF68817981BA
:100BB0008A819B8120E030E040E050E0AED2882383
:100BC00041F480E090E0A0E8BFE388879987AA8796
:100BD000BB87C884D984EA84FB8401E010E00DC09F
:100BE000688579858A859B85A701960145D46887A4
:100BF00079878A879B870F5F1F4FB801882777FD0A
:100C00008095982F29D3288139814A815B8185D2AB
:100C100087FDE6CF2DC0688579858A859B852881EB
:100C200039814A815B815AD3AC01CB01DA018887D3
:100C30009987AA87BB871CC0E880F9800A811B813D
:100C4000C801B70120E030E040E050E011D4882333
:100C50003CF0C801B70177D4688779878A879B877A
:100C600088859985AA85BB8588839983AA83BB8358
:100C7000DF91CF911F910F91FF90EF90DF90CF9078
:100C80000895FC0183E78487168681E08587CF017C
:100C900034CFCF93DF93EC011F869D85992319F004
:100CA0008E85882311F46D3321F4CE0126DF1E8654
:100CB00015C0992379F08E85882381F46A3771F005
:100CC0006C8788859985AA85BB8588839983AA8343
:100CD000BB8304C01E8681E08D876C87DF91CF9136
:100CE0000895AF92BF92CF92DF92EF92FF920F934F
:100CF0001F93CF93DF93EC015B018D858823E1F097
:100D00008E858823C9F4E880F9800A811B81C80197
:100D1000B70120E030E040E050E0FFD1882321F02F
:100D2000E886F9860A871B8780E090E0A0E0B0E0C3
:100D300088839983AA83BB8381E08E878F8590E126
:100D4000C92ED12CCC0EDD1E882309F03CC0688151
:100D500079818A819B8120E030E040E251E48CD3AC
:100D60007B018C01B501882777FD8095982F74D27F
:100D70009B01AC01C801B7016CD1688379838A8378
:100D80009B8300D000D000D00DB71EB70F5F1F4F60
:100D9000ADB7BEB71296DC92CE92119728E630E03E
:100DA000F8013383228325D2D80115967C936E9364
:100DB000149762D5EDB7FEB736960FB6F894FEBF1E
:100DC0000FBEEDBF28C08DB79EB708970FB6F89439
:100DD0009EBF0FBE8DBFEDB7FEB73196ADB7BEB7A4
:100DE0001296DC92CE9211978CE690E093838283E8
:100DF000D582C482B782A6823FD5EDB7FEB73896BA
:100E00000FB6F894FEBF0FBEEDBFC60118D46883BD
:100E100079838A839B83DF91CF911F910F91FF90FC
:100E2000EF90DF90CF90BF90AF90089560E070E0BA
:100E3000A1E0B0E082B39D01062E02C0220F331F55
:100E40000A94E2F7922F9095982392BB40E050E0ED
:100E5000E42F83B3342F90E0042E02C0959587953C
:100E60000A94E2F780FD18C083B390E0032E02C01D
:100E7000959587950A94E2F780FFF6CF82B3282BE9
:100E800022BB2E2F2F5FCB01880F991F880F991F30
:100E9000860F971F280F0EC04F5F5F4F45305105DB
:100EA000B9F682B3282B22BB6F5F7F4F6530710587
:100EB00009F620E0822F08958F929F92AF92BF9201
:100EC000CF92DF92FF920F931F93DF93CF93CDB713
:100ED000DEB7A4970FB6F894DEBF0FBECDBF8FE18B
:100EE00081BB82BB14BA85BB31DD8E010F5F1F4F02
:100EF000C801C1DDF02E012F11E00F2EF0E0AF2E62
:100F0000F0E0BF2EF0E0CF2EF0E0DF2EF02D44EC2D
:100F1000842E49E0942E8ADF90E0FC013197E9317C
:100F2000F10508F091C0E65DFF4FEE0FFF1F059041
:100F3000F491E02D09946D817E818F8198852981BE
:100F40003A814B815C8185D009C06D817E818F8122
:100F5000988529813A814B815C817AD06D837E832B
:100F60008F83988771C0AD82BE82CF82D8866CC0D5
:100F70008F2D902FB6DD4FC08F2D902F92DD2ADD63
:100F800063C08F2D902F67E070E044C08F2D902FAD
:100F900068E070E03FC08F2D902F69E070E03AC0AC
:100FA0008F2D902F65E246C08F2D902F8CDD33C0A2
:100FB0008F2D902F64E070E02DC08F2D902F65E075
:100FC00070E028C08F2D902F66E070E023C08F2D39
:100FD000902F6FE22FC08F2D902F6AE22BC08F2DA4
:100FE000902F61E070E016C08F2D902F62E070E0CE
:100FF00011C08F2D902F63E070E00CC08F2D902FCB
:101000006DE218C08F2D902F6BE214C08F2D902FA2
:1010100060E070E066DE69817A818B819C8113C01B
:10102000188B12C08F2D902F6DE333DE08C08F2DEB
:10103000902F6EE52EDE08C08F2D902F22DE698561
:101040007A858B859C85CDDCC4010197F1F763CF50
:101050005058BB27AA270ED0D1C1C2D130F0C7D17A
:1010600020F031F49F3F11F41EF4B7C10EF4E09567
:10107000E7FB9FC1E92FD3D180F3BA17620773074B
:101080008407950718F071F49EF5EBC10EF4E09516
:101090000B2EBA2FA02D0B01B90190010C01CA0132
:1010A000A0011124FF27591B99F0593F50F4503EDD
:1010B00068F11A16F040A22F232F342F4427585FCF
:1010C000F3CF469537952795A795F0405395C9F7E7
:1010D0007EF41F16BA0B620B730B840BBAF091509F
:1010E000A1F0FF0FBB1F661F771F881FC2F70EC03E
:1010F000BA0F621F731F841F48F487957795679511
:10110000B795F7959E3F08F0B3CF9395880F08F0F9
:101110009927EE0F97958795089527D108F481E0D8
:1011200008950CD06BC163D140F05AD130F021F456
:101130005F3F19F03EC1511195C14FC170D198F375
:101140009923C9F35523B1F3951B550BBB27AA2748
:1011500062177307840738F09F5F5F4F220F331FBA
:10116000441FAA1FA9F333D00E2E3AF0E0E830D086
:1011700091505040E695001CCAF729D0FE2F27D089
:10118000660F771F881FBB1F261737074807AB0757
:10119000B0E809F0BB0B802DBF01FF2793585F4FCC
:1011A0002AF09E3F510568F004C15CC15F3FECF33B
:1011B000983EDCF3869577956795B795F7959F5F91
:1011C000C9F7880F911D9695879597F90895E1E0E5
:1011D000660F771F881FBB1F621773078407BA0744
:1011E00020F0621B730B840BBA0BEE1F88F7E0959F
:1011F000089504D06894B11135C1089518D188F0CC
:101200009F5790F0B92F9927B751A0F0D1F0660FF2
:10121000771F881F991F1AF0BA95C9F712C0B1300D
:1012200081F01FD1B1E008951CC1672F782F882766
:10123000B85F39F0B93FCCF3869577956795B3954C
:10124000D9F73EF490958095709561957F4F8F4FBB
:101250009F4F0895E89409C097FB3EF490958095C0
:10126000709561957F4F8F4F9F4F9923A9F0F92F6C
:1012700096E9BB279395F695879577956795B795EA
:10128000F111F8CFFAF4BB0F11F460FF1BC06F5FD0
:101290007F4F8F4F9F4F16C0882311F096E911C0E2
:1012A000772321F09EE8872F762F05C0662371F003
:1012B00096E8862F70E060E02AF09A95660F771F17
:1012C000881FDAF7880F9695879597F9089588D043
:1012D00018F011F08CD038F480C0C4C0E92F9FD032
:1012E000B0F35523C9F3E7FB62177307840795072B
:1012F000A8F199F3E92FFF2788232AF03197660F89
:10130000771F881FDAF7952F5527442332F0915025
:101310005040220F331F441FD2F7BB27E91BF50BA8
:10132000621B730B840BB109C1F222F4620F731FAD
:10133000841FB11D31972AF0660F771F881FBB1FCE
:10134000EFCF915050405AF041F0882332F0660FB1
:10135000771F881F91505040C1F7939530C08695F4
:10136000779567959F5FD9F7F8CF990F0008550FCC
:10137000AA0BE0E8FEEF16161706E807F907C0F01B
:1013800012161306E407F50798F0621B730B840B23
:10139000950B39F40A2661F0232B242B252B21F4FD
:1013A00008950A2609F4A140A6958FEF811D811D9D
:1013B000089597F99F6780E870E060E008959F3F87
:1013C00031F0915020F4879577956795B795880F00
:1013D000911D9695879597F908959FEF80EC089554
:1013E00000240A9416161706180609060895002404
:1013F0000A9412161306140605060895092E03947E
:10140000000C11F4882352F0BB0F40F4BF2B11F4F1
:1014100060FF04C06F5F7F4F8F4F9F4F089557FD50
:101420009058440F551F59F05F3F71F04795880F52
:1014300097FB991F61F09F3F79F0879508951216E9
:1014400013061406551FF2CF4695F1DF08C0161695
:1014500017061806991FF1CF869571056105089446
:101460000895E894BB2766277727CB0197F908955D
:101470007CDF08F48FEF08950BD0C0CFB1DF28F0E8
:10148000B6DF18F0952309F094CFA7CF1124EACF47
:10149000C6DFA0F3959FD1F3950F50E0551F629FD3
:1014A000F001729FBB27F00DB11D639FAA27F00DBD
:1014B000B11DAA1F649F6627B00DA11D661F829FE4
:1014C0002227B00DA11D621F739FB00DA11D621FC9
:1014D000839FA00D611D221F749F3327A00D611DE6
:1014E000231F849F600D211D822F762F6A2F1124C8
:1014F0009F5750408AF0E1F088234AF0EE0FFF1F1B
:10150000BB1F661F771F881F91505040A9F79E3F51
:10151000510570F04ECFA6CF5F3FECF3983EDCF361
:10152000869577956795B795F795E7959F5FC1F78E
:10153000FE2B880F911D9695879597F9089511F4C4
:101540000EF44BCF3CCF73DFD0F39923D9F3CEF316
:101550009F57550B87FF35D00024A0E640EA900145
:1015600080585695979528F4805C660F771F881FE2
:1015700020F026173707480730F4621B730B840BE3
:10158000202931294A2BA695179407942025312527
:101590004A2758F7660F771F881F20F0261737074E
:1015A000480730F4620B730B840B200D311D411D75
:1015B000A09581F7B901842F9158880F969587954A
:1015C000089591505040660F771F881FD2F70895F5
:1015D0002F923F924F925F926F927F928F929F9243
:1015E000AF92BF92CF92DF92EF92FF920F931F9331
:1015F000CF93DF93CDB7DEB7CA1BDB0B0FB6F894E2
:10160000DEBF0FBECDBF09942A88398848885F8421
:101610006E847D848C849B84AA84B984C884DF8092
:10162000EE80FD800C811B81AA81B981CE0FD11D76
:101630000FB6F894DEBF0FBECDBFED01089566274B
:1016400077279AC1283008F027E03327DA01990F6D
:10165000311D87FD916000966105710539F4326096
:101660002E5F3D9330E32A95E1F708959F3F30F0D8
:1016700080387105610509F03C5F3C5F3D93913016
:1016800008F08068911DDF93CF931F930F93FF9213
:10169000EF92192F987F9695E92F96959695E90FD9
:1016A000FF27E851FF4F99273327EE24FF24A70196
:1016B000E70105900894079428F4360FE71EF81EFA
:1016C000491F511D660F771F881F991F0694A1F7A8
:1016D0000590079428F4E70EF81E491F561FC11DF8
:1016E000770F881F991F661F0694A1F7059007942E
:1016F00028F4F80E491F561FC71FD11D880F991FC8
:10170000661F771F0694A1F70590079420F4490FF0
:10171000561FC71FD81F990F661F771F881F069473
:10172000A9F784911095177041F0D695C7955795F4
:101730004795F794E7941A95C1F7EEE8F0E06894BE
:101740001590159135916591959105907FE273956E
:10175000E118F10A430B560BC90BD009C0F7E10C95
:10176000F11E431F561FC91FD01D7EF4703311F4A4
:101770008A95E6CFE894015030F0080F0AF400276C
:10178000021708F4202F2395022F7A3328F079E3EB
:101790007D932A95E9F710C07D932A9589F60694E2
:1017A00097956795379517951794E118F10A430BAC
:1017B000560BC90BD00998F023957E9173957A3317
:1017C00008F070E37C932013B8F77E9170617D93ED
:1017D00030F0839571E37D9370E32A95E1F711244E
:1017E000EF90FF900F911F91CF91DF91992787FD87
:1017F00090950895FC010590615070400110D8F754
:10180000809590958E0F9F1F0895FC016150704048
:1018100001900110D8F7809590958E0F9F1F089525
:101820000F931F93CF93DF938C01EB018B8181FF8B
:101830001BC082FF0DC02E813F818C819D812817A6
:10184000390764F4E881F9810193F983E88306C0DC
:10185000E885F985802F0995892B31F48E819F8148
:1018600001969F838E8302C00FEF1FEFC801DF91A7
:10187000CF911F910F910895AEE0B0E0E1E4FCE05C
:10188000B5CE0D891E8986E08C831A8309838FEF7C
:101890009FE79E838D839E01275E3F4FCE01019679
:1018A0006F89788DA9010E94FF002F813885020F72
:1018B000131FF80110822E96E4E0B4CEFA01AA2795
:1018C000283051F1203181F1E8946F936E7F6E5F83
:1018D0007F4F8F4F9F4FAF4FB1E03ED0B4E03CD031
:1018E000670F781F891F9A1FA11D680F791F8A1F14
:1018F000911DA11D6A0F711D811D911DA11D20D07B
:1019000009F468943F912AE0269F11243019305D34
:101910003193DEF6CF010895462F4770405D419325
:10192000B3E00FD0C9F7F6CF462F4F70405D4A3372
:1019300018F0495D31FD4052419302D0A9F7EACF3A
:10194000B4E0A6959795879577956795BA95C9F769
:1019500000976105710508959B01AC010A2E06945C
:101960005795479537952795BA95C9F7620F731F15
:10197000841F951FA01D0895A0E0B0E0E1ECFCE0FD
:101980002DCEEC015B016115710519F0FB0191830E
:101990008083F9908F2D90E045D1892BD1F7FDE21E
:1019A000FF1621F4F990EE24E39405C02BE2F21621
:1019B00009F4F990EE248E0101501040C80168E846
:1019C00071E043E050E036D1892BF9F48E010E5FCF
:1019D0001F4FC8016BE871E045E050E02BD1892B27
:1019E00019F48E01095F1F4FA114B10419F0F5011C
:1019F00011830083E0FC04C070E090E080E813C035
:101A000070E090E080E86FEF03C1C80160E971E029
:101A100043E050E00FD1892B69F4A114B10429F4FB
:101A200070E090E080EC6FE7F3C02296F501D1837F
:101A3000C083F6CF8824992440E050E060E070E055
:101A4000EF2DE053EA30A0F5F2E0EF2A8E2D90E082
:101A50009C0128703070E2FE06C0232B79F50894B3
:101A6000811C911C2BC0232B19F00894810891082C
:101A7000DB01CA0112E0880F991FAA1FBB1F1A952C
:101A8000D1F7480F591F6A1F7B1F440F551F661F50
:101A9000771F4E0F511D611D711D483929E95207ED
:101AA00029E9620729E1720748F084E0E82A06C0C4
:101AB000EE3F31F4E3FC39C098E0E92AF990C0CF59
:101AC000E53311F0E53189F529912D3219F4E0E182
:101AD000EE2A05C02B3219F081E090E003C0299175
:101AE00082E090E0E22FE053EA3018F0C81BD90BF7
:101AF0001CC020E030E0FCE020383F075CF4C90166
:101B0000880F991F880F991F280F391F220F331F25
:101B10002E0F311DE991E053EA3068F3E4FE03C073
:101B2000309521953F4F820E931ECE2CDD24E1FE91
:101B300007C0A114B10421F02197F501D183C0831E
:101B4000CB01BA0187DB7B018C01F3E0CF22DD24DE
:101B500023E0C216D10421F417FB109517F9109554
:101B600057016801C801B70120E030E040E050E0D3
:101B7000D4DA882309F448C097FE0DC027EAE22E84
:101B800021E0F22E9094819491089394C0E2D0E0E9
:101B900000E010E011C09FEBE92E91E0F92EF6CFA6
:101BA000F7012591359145915491C601B50164DC49
:101BB0005B016C018C1A9D0A8C169D068CF7D595DD
:101BC000C7950F5F1F4F0630110529F08CEF9FEF6F
:101BD000E80EF91EF1CFC501D6017C018D018C2DD7
:101BE000880F8D2D881F8F3F49F0C601B50120E079
:101BF00030E040E050E091DA882331F482E290E076
:101C000090937300809372007E2D9F2D802F612F03
:101C1000272F392F482F562FB901CA01CDB7DEB76C
:101C2000ECE0F8CC91111EC0803219F0895085503B
:101C3000D0F70895FB01DC014150504088F08D91B0
:101C400081341CF08B350CF4805E659161341CF09E
:101C50006B350CF4605E861B611171F3990B08956E
:0E1C6000881BFCCF992788270895F894FFCFA2
:101C6E00252E36670025640025642E002573256415
:021C7E00000064
:00000001FF
